{
  "_format": "hh-sol-artifact-1",
  "contractName": "KYCVerifier",
  "sourceName": "contracts/KYCVerifier.sol",
  "abi": [
    {
      "inputs": [
        {
          "internalType": "address",
          "name": "_admin",
          "type": "address"
        }
      ],
      "stateMutability": "nonpayable",
      "type": "constructor"
    },
    {
      "inputs": [],
      "name": "admin",
      "outputs": [
        {
          "internalType": "address",
          "name": "",
          "type": "address"
        }
      ],
      "stateMutability": "view",
      "type": "function"
    },
    {
      "inputs": [
        {
          "internalType": "address",
          "name": "",
          "type": "address"
        }
      ],
      "name": "isVerified",
      "outputs": [
        {
          "internalType": "bool",
          "name": "",
          "type": "bool"
        }
      ],
      "stateMutability": "view",
      "type": "function"
    },
    {
      "inputs": [
        {
          "internalType": "address",
          "name": "user",
          "type": "address"
        }
      ],
      "name": "verifyUser",
      "outputs": [],
      "stateMutability": "nonpayable",
      "type": "function"
    }
  ],
  "bytecode": "0x608060405234801561001057600080fd5b50604051610496380380610496833981810160405281019061003291906100db565b806000806101000a81548173ffffffffffffffffffffffffffffffffffffffff021916908373ffffffffffffffffffffffffffffffffffffffff16021790555050610108565b600080fd5b600073ffffffffffffffffffffffffffffffffffffffff82169050919050565b60006100a88261007d565b9050919050565b6100b88161009d565b81146100c357600080fd5b50565b6000815190506100d5816100af565b92915050565b6000602082840312156100f1576100f0610078565b5b60006100ff848285016100c6565b91505092915050565b61037f806101176000396000f3fe608060405234801561001057600080fd5b50600436106100415760003560e01c80634d81312014610046578063b9209e3314610062578063f851a44014610092575b600080fd5b610060600480360381019061005b919061023f565b6100b0565b005b61007c6004803603810190610077919061023f565b610198565b6040516100899190610287565b60405180910390f35b61009a6101b8565b6040516100a791906102b1565b60405180910390f35b60008054906101000a900473ffffffffffffffffffffffffffffffffffffffff1673ffffffffffffffffffffffffffffffffffffffff163373ffffffffffffffffffffffffffffffffffffffff161461013e576040517f08c379a000000000000000000000000000000000000000000000000000000000815260040161013590610329565b60405180910390fd5b60018060008373ffffffffffffffffffffffffffffffffffffffff1673ffffffffffffffffffffffffffffffffffffffff16815260200190815260200160002060006101000a81548160ff02191690831515021790555050565b60016020528060005260406000206000915054906101000a900460ff1681565b60008054906101000a900473ffffffffffffffffffffffffffffffffffffffff1681565b600080fd5b600073ffffffffffffffffffffffffffffffffffffffff82169050919050565b600061020c826101e1565b9050919050565b61021c81610201565b811461022757600080fd5b50565b60008135905061023981610213565b92915050565b600060208284031215610255576102546101dc565b5b60006102638482850161022a565b91505092915050565b60008115159050919050565b6102818161026c565b82525050565b600060208201905061029c6000830184610278565b92915050565b6102ab81610201565b82525050565b60006020820190506102c660008301846102a2565b92915050565b600082825260208201905092915050565b7f4e6f742061646d696e0000000000000000000000000000000000000000000000600082015250565b60006103136009836102cc565b915061031e826102dd565b602082019050919050565b6000602082019050818103600083015261034281610306565b905091905056fea2646970667358221220cc68bc0a9aaa5c7ff066b0f5b42b2cf394fdab67e6ebe263d38a341ebeee748964736f6c63430008170033",
  "linkReferences": {},
  "deployedLinkReferences": {}
}